:4000000000800020110000009D0800009D08000008B5044B1A6803F53F5302331A6000F05DFC00BFFA46004010B5054C237833B9044B13B10448AFF300800123237010BDD4
:40004000A082FF1F0000000044260000084B10B51BB108490848AFF300800848036803B910BD074B002BFBD0BDE81040184700BF00000000A482FF1F44260000C880FF1F7C
:400080000000000008B5002000F0E8FE08BD00BF684620F007018D4619B572B6EFF311841E4B1B68DBB20F2B10D9103B23F0030202F1604202F564421168DB0003F0180370
:4000C000E0229A400A4022FA03F306E00F2B03D1134B1B681B0E00E0002383F31188114A136801331360012B01D101F07BFC62B6FFF7C8FF72B684F3118801F0A9F8094AE3
:400100001368013B13601BB901F075FC01F039FC62B6BDE819408546704700BF04ED00E020ED00E07883FF1F08B562B600F04AFC01F0FAFD45F6BF52054B1A60054A136838
:4001400043F002031360002001F070F9FBE700BF14E000E010E000E008B500F049FA00F073FA01F0C7F9114A136843F00503136001F016FA00F026FC01F0D6FD0C4801F077
:4001800029FA01221146002000F0EAFC02221146032000F0E5FC0A221146042000F0E0FC022000F017FC01F087F908BD10E000E04826000000B583B00DE0072000F074FFD2
:4001C00001A9022000F0D0FE019800F09FFE9DF8040000F0C3F800F06DF90A28EDD901F06BF903B05DF804FB08B5034A13680133136001F061F908BDBC82FF1F08B500F01C
:400200005FF901F059F908BD08B500F0A5F901F053F908BD08B5002000F0D0F918B9012000F0CCF918B10121022000F0BDFE08BD684620F007018D4619B572B6EFF3118451
:400240001E4B1B68DBB20F2B10D9103B23F0030202F1604202F564421168DB0003F01803E0229A400A4022FA03F306E00F2B03D1134B1B681B0E00E0002383F31188114A48
:40028000136801331360012B01D101F0ABFB62B6FFF7C0FF72B684F3118800F0D9FF094A1368013B13601BB901F0A5FB01F069FB62B6BDE819408546704700BF04ED00E05B
:4002C00020ED00E07883FF1F00BFFDE708B501F053FD084BA3FB00235B0803EB4303C31A4FF47A71002203FB0111012000F038FC002008BDABAAAAAA10B501F03DFD00F0BC
:400300000100411C89B2064C2180C9B2002000F079F92178012000F075F9002010BD00BFC082FF1F08B5002000F048F918B10A4B1B88022B09D0012000F040F938B1064BB7
:400340001B88012B05D0002008BD012008BD002008BD012008BD00BFC082FF1F70B5474B9B78012B16D013B1022B26D083E0012840F08180FFF7AAFF0122404B9A70404CC1
:40038000404B1A784049204601F030FD204601F021F970E002286ED1012000F08FFBFFF7ABFF364B02209870384A12685A6000224FF47A7100F0D4FB5DE0012820D1FFF7F1
:4003C000B1FFC8B1314B1B682C4CA360304801F001F9A36865685D1B294E2A462D49304601F004FD304601F0F5F8E3681D44E560238A0133238208E0274801F0EBF804E008
:40040000042802D1254801F0E5F800201B4B98701C4C23780133237000F00EF9012000F00BF9022000F04AFB2378092B03D81C4801F0D0F81FE00A2B1DD9104D104CEA68CB
:400440001849204601F0D2FC204601F0C3F82A8A1549204601F0CAFC204601F0BBF8EB68124AA2FB0332D2081149204601F0BEFC204601F0AFF8002070BD00BFC082FF1F7B
:400480004C83FF1FCC80FF1F78260000BC82FF1F8C260000A8260000C0260000DC260000E82600001427000030270000CDCCCCCC48270000014B1878704700BFCC80FF1F87
:4004C00010B5244B1B78032B41D8DFE803F00210243C204C6078431C637001F0D1F86378FF2B34D1012222700022A2702FE0194CA078431CA37001F09BF960780138C0B299
:40050000607001F0BDF8A378FF2B20D1022222700022E2701BE00F4CE078431CE37001F01BF9A0780138C0B2A07001F081F960780138C0B2607001F0A3F8E378FF2B06D107
:400540000322227003E0034B00221A705A70002010BD00BFD982FF1F38B5164D164C237803EB43035A00A85C01F0C8F9237803EB43035A002A44507801F0CCF9237803EBC9
:4005800043035A002A44907801F0D0F9237803EB43035A0015440022A988042000F0E0FA23780133DBB22370072B01D900222270002038BDD8270000DD82FF1F38B5044631
:4005C00001F028F8054601F02DF814B1012C04D007E0012D07D0002038BD012805D0002038BD002038BD012038BD012038BD00BF08B501F08FF801F0F9F801F063F901F05A
:400600006FF908BD0F290ED838B50C46054601F011F8064B185D064B5C55064B585501F015F8002038BD6FF01300704708280000D080FF1FE082FF1F08B500F0FBFF002004
:4006400001F004F8002008BD08B50020FFF7F4FF0120FFF7F1FF002008BD00BFFEE700BFF0B40022174611E050F82760F3B226F0FF0608E001EB420511F812406D78A5559B
:400680000132013BDBB2002BF4D101371A2FEBD9F0BC7047064B1B78DBB203F00701054A11701B09013213704422034B1A707047CF0100496E5800407658004008B50A4661
:4006C000002101F028FB08BD38B50122264B1A801823264A1370332102321180023213700222234B1A7008224FF040231A70032103F5007319701F4B1B78DBB21E490B70F1
:400700001E4B1A8041F25122023B1A80002419250CE01B4B1B7803F0010343EA440404F003044FF4F07001F00FF9013D0DB1032CEFD115B90320FFF791FF124B4FF48072FB
:400740001A8007221A7000220F490A704820023108701A700222033B1A700C4A137843F00303137038BD00BF80400040824000400043004008010049A146004022420040BC
:40078000254200400440004006400040A243004008B501F0B5FA08BD38B572B600240CE02C4D630019194A0011462A44084691882858FFF783FF0134E4B2062CF0D926496B
:4007C0004FF09040FFF74CFF244A137843F0020313701032137843F002031370204C237843F040032370A2F58632513A137843F01003137008221B491B48FFF7C9FF0A2254
:400800001A491B48FFF7C4FF08221A491A48FFF7BFFF082219491A48FFF7BAFF082219491948FFF7B5FF194A137843F008031370174D61232B70FFF747FF81232B70012292
:40084000144B1A70FFF726FF0E2221461248FFF79FFF38BD142800006C00004803500140A0430040B805004802510040C0050048C0510040CC05004812510040D405004880
:4008800022510040DC05004832510040224300400048004004000840B043004008B501F003FA03680C2B00D1FEE7FEE708B5094B1A681044084BC31A802B02DC054B18609D
:4008C00005E001F0F1F90C2303604FF0FF32104608BD00BFD480FF1FA895FF1F08B5104E104D16E029686B68AC68002204E051F8040B43F8040B0432A242F8D1E8680022AC
:4009000003E0002143F8041B04328242F9D11035013E002EE6D101F0CDF9FFF705FCFEE701000000082C000008B5104A104B1A60104A136843F40073136000230AE0032B4B
:4009400003D80D4A52F8231000E00C490C4A42F8231001332F2BF2D90A4B1A780A4B1A70074A0A4B1A60FFF717FF08BD0004FA050CED00E014ED00E0000000009D0800005E
:400980000080FF1FBC760040C080FF1F08ED00E001BE704738B504460D46072902D90020FFF7F6FF1F2C02D90020FFF7F1FF04F01F0000F1604000F564406D01EDB20570F3
:4009C00038BD00BF024B186820F07F40704700BF18E000E038B5EFF3108572B605284ED82D4B53F82030002B4BD02B4A013B42F820302A4B53F82030032B07D10222274B3A
:400A000043F820200022264B43F8202000F090FC244B1B68002B36D1234B1C6800F066FCB0F1FF3F31D0214B53F82020204B1B689A422CD9B4F1FF3F03D00221174A42F82F
:400A400024101C4A52F820201343194A13600022124B43F8202000F005FC174B53F820304BB10024144B43F8204040F0004000F0CBFF20460CE000F0C7FF002008E00320C7
:400A800006E0042004E0002002E0002000E0002085F3108838BD00BF3C81FF1FF081FF1F1483FF1F7883FF1FD481FF1F842A00003483FF1F602A0000E482FF1FEFF31082B2
:400AC00072B604283CD803012249CB58002B39D010B400EB40018B001F49CC581F4B03EBC4035968884209D11A4B03EB0013D9681A4B03EBC40461600DE01946154B03EB20
:400B00000113DB689842F8D1124B03EB0014E46803EB0111CC600F4B03EB0013DC68B4F1FF3F08D00B4B03EB0011896803EB04139C6821449960030100200649C85005E06D
:400B4000032000E0052082F31088704782F3108810BC70475093FF1FC0290000EC80FF1FF8B5EFF3108472B6042825D800EB4005AB00184DEB5803EB4306B500164E755970
:400B80008D421BD34AB103EB43039E00124B1E44B3689A4214D3954214D3A9B103010F4DEB589BB90301EE180127EF507260013900F086F800200AE0032008E0082006E0F1
:400BC000082004E0082002E0082000E0072084F31088F8BDC0290000242A00005093FF1F18B108B5C368984708BD704708B508B1406800E00020052816D80C4B53F820307D
:400C000093B10A4A013B42F82030094B53F82030032B07D10222064B43F820200022054B43F8202000F084FB08BD00BF3C81FF1FF081FF1F1483FF1F18B1034640689B68B5
:400C400001E00023184605281DD80F4A52F82020CAB10E4A52F82010032914D010B50C4C54F820201A4344F820200A4A52F82020134207D0012905D10222044B43F8202036
:400C800000F056FB10BD7047302A0000F081FF1F1483FF1FFC82FF1F80B108B50378012B06D013B1032B06D008BDFFF79FFF08BDFFF7C2FF08BDFFF793FF08BD704700BFA5
:400CC00030B400EB40029300214AD258214B03EBC2035C68B4F1FF3F04D11E4B03EBC20250602DE01C4B03EB04139B6899420AD2184D05EBC2025060174A02EB04125B1A80
:400D000093601DE01C46144B03EB04139A68891ADB68B3F1FF3F05D00F4A02EB031292689142EFD2B3F1FF3F05D00B4A02EB031295686D1A9560084A02EB0414E0601C46F5
:400D4000054B03EB00108160C46030BC704700BFC0290000EC80FF1F5093FF1F38B5394A02EBC0035C6852F83030013342F8303000EB40018A0034498A58934203D9002206
:400D8000304B43F83020B4F1FF3F59D02F4B03EB04139B68002B4ED1214600E019462B4B03EB0113DB68B3F1FF3F05D0274A02EB03129268002AF1D0244A02EB01114FF039
:400DC000FF32CA601F4A02EBC0004360B3F1FF3F07D01E4A02EB03139A68013A9A6000E02C4604EB44029300194A13441B7A7BB904EB44029300164A13445A68154B53F8FB
:400E0000223003EB83039A0013481044FFF744FF0E4B03EB0413DD68596821B101392046FFF74EFF03E024010022084B1A51B5F1FF3FD5D138BD054A02EB0414013BA36057
:400E400038BD00BFEC80FF1F242A00005093FF1FC0290000102A00005C29000038B5EFF3108572B6002838D1FFF778FF204B1B68002B34D11F4B1C6800F038FAB0F1FF3F06
:400E80002FD01D4B53F820201C4B1B689A422AD9B4F1FF3F03D00221194A42F82410194A52F820201343154A13600022144B43F8202000F0D7F9144B53F820304BB10024E2
:400EC000114B43F8204040F0004000F09DFD20460AE000F099FD002006E0032004E0002002E0002000E0002085F3108838BD00BF7883FF1FD481FF1F842A00003483FF1F29
:400F0000F081FF1F602A0000E482FF1FEFF3108372B6114A1168114A126882B9B1F1FF3F0FD00F4A52F821206AB110B40D4C54F8212022EA000044F82100002007E0022099
:400F400002E0022000E0012083F31088704783F3108810BC704700BFD481FF1F7883FF1F302A00001483FF1F05280FD80B4B53F820306BB10A4B53F82030032B0AD059B199
:400F8000084B53F820300B60002070470320704701207047072070470E207047302A0000F081FF1F1483FF1F38B5EFF3108472B6052853D8324B53F82030002B50D0314B2C
:400FC00053F82030032B4DD02F4D55F820200A4345F820202D4A52F82020114244D0012B44D10222274B43F8202000F0A1F9284B1B68002B3CD1274B1D6800F077F9B0F1CE
:40100000FF3F37D0244B53F82020244B1B689A4232D9B5F1FF3F03D002211A4A42F825101F4A52F8202013431C4A13600022154B43F8202000F016F91A4B53F820304BB1D1
:401040000025184B43F8205040F0004000F0DCFC284612E000F0D8FC00200EE003200CE001200AE0072008E0002006E0002004E0002002E0002000E0002084F3108838BD7A
:40108000302A0000F081FF1F1483FF1FFC82FF1F7883FF1FD481FF1F842A00003483FF1F602A0000E482FF1F38B5EFF3108472B6364B1D68364B1B68002B5DD1B5F1FF3F07
:4010C0005CD0344B53F82530002B59D0324B53F82530034256D1314B43F825000122304B43F825202F4B53F825002F490B6823EA00030B602D4B43F825202D4B53F825207E
:40110000224B1A6000F0F2F8B0F1FF3F06D0294B53F82020244B1B689A420DD81B4B1868B0F1FF3F03D000221D4B43F8202040F0004000F069FC1AE00021194A42F820103D
:40114000184A52F820201343174A136000F08AF8164B53F8203043B10022144B43F8202040F0004000F050FC01E000F04DFC00200A4B43F8250006E0022004E0022002E070
:40118000012000E0002084F3108838BDD481FF1F7883FF1F302A00001483FF1FFC82FF1FF081FF1F602A00003483FF1FE482FF1FD881FF1F842A000008B500F053F8084BF1
:4011C00053F8203043B10022054B43F8202040F00040044B186008BD024B186008BD00BFE482FF1F7C83FF1F10B500F07FF8124B1B68B0F1FF3F1AD0104A52F82010104A8A
:401200001268914213D9B3F1FF3F03D002240D4941F8234000210B4B43F820100A4B53F820301A43064B1A60FFF7C6FF10BD43F00043064A136010BDD481FF1F842A0000FF
:401240003483FF1FF081FF1F602A00007C83FF1F034B1B6813B10022014B1A60704700BF6C83FF1FF0B4184B19880B0A174AD356B3F1FF3F01D1535601E008335BB2144D35
:4012800055F82320134850F82200134E56F8224045F82340114D2F6846F822702A60B4F1FF3F09D10E4A42F82340012202FA03F321EA0301044B19800A4B19680A4A42F8B7
:4012C00020101860F0BC70473083FF1F402800009481FF1F2093FF1F0C81FF1F2C83FF1F5481FF1FD481FF1FD881FF1F0C4B1A88130A0C49CB56B3F1FF3F01D18B5601E04F
:4013000008335BB2B3F1FF3F06D0074A52F82320064B53F8220070474FF0FF30704700BF3083FF1F402800009481FF1F2093FF1F30B4144B53F82020134C2368134951F8DC
:4013400023502560124C44F823004FF0FF3441F82340104951F82210A1420AD10E4951F820400E480188214301800D4941F8223002E0064840F82130064941F8223030BCF4
:40138000704700BF2481FF1F2C83FF1F0C81FF1F2093FF1F5481FF1F842A00003083FF1F9481FF1F10B150F8210070474FF0FF30704700BF0122014B1A60FEE77483FF1F5E
:4013C00070B50546124B53F8306000241CE0104B03EBC50321465868FFF7E4FF0D4A52F82030013B42F820300B4B53F82030032B07D10222084B43F820200022074B43F8C5
:401400002020FFF795FF0134B442E0D370BD00BF402900003C81FF1FF081FF1F1483FF1F18B908B5FFF7CCFF08BD7047194B1A4ADA621A4A9A631A4ADA63EFF3108272B623
:40144000184B1B6813BB10B5044600F053F8164B1C600122134B1A602046FFF7E1FFFFF745FFB0F1FF3F0ED0104B53F82030104A11680B43136000220E4B43F82020FFF7ED
:40148000F1FE00F0C1FA62B6FFF794FF82F31088072070470080FF1FC91900008D190000910000007483FF1FA093FF1F602A00003483FF1FF081FF1F08B5EFF3108272B6A2
:4014C000094B1968094B1B6833B94FF0FF30084B43F82100002000E0022010B9084600F0ECFA82F3108808BDD481FF1F7883FF1FF480FF1F38B50D4B1D68EFF3108472B6D0
:4015000000F032FA0A4A136843F07F431360094B2B6402210020FFF73DFA074A136843F00103136084F3108838BD00BF08ED00E020ED00E03102000000E100E07222094B2E
:401540001A70202203F580731A700622A3F5B0731A70472210331A70002203F24F131A70704700BF8964004010B500F0F5F904460A4A137843F02003137002F580721378C8
:4015800043F010031370013A137843F01003137000F032F8204600F0E3F910BD9964004008B5054B1B7823B9FFF7C8FF0122024B1A70FFF7D9FF08BD3C83FF1F034B1B78F9
:4015C00013F0040FFAD1024B18707047686500404864004038B5074B1B782BB938BDFFF7EDFF0134A4B201E005460024285D0028F5D138BD3C83FF1F054A137843F00203C6
:4016000013701032137843F002031370704700BFA2430040024B1878C0F3C000704700BF01510040024B1878C0F30010704700BF01510040044A137803F0DF03400100F025
:40164000200018431070704730510040014B1870704700BF79650040024A137843F080031370704772640040014B1870704700BF02640040014B1870704700BF4264004092
:40168000014B1870704700BF22640040014B1870704700BF82640040014B1878704700BF62640040014B1878704700BF5264004008B501E0FFF7F6FFFFF7EEFF10F0100F7F
:4016C000F8D108BD10B5114A137803F0C00343F0090313700E4C237843F001032370FF20FFF7C2FFFF20FFF7C5FF7F20FFF7C8FF0020FFF7CBFF00F02FF9237843F0100396
:40170000237000F02DF9FFF7D3FF10BD726400409264004008B5054B1B7823B9FFF7D2FF0122024B1A70FFF797FF08BD3E83FF1F024A137843F080031370704773640040D4
:40174000014B1870704700BF03640040014B1870704700BF43640040014B1870704700BF23640040014B1870704700BF83640040014B1878704700BF63640040014B187890
:40178000704700BF5364004008B501E0FFF7F6FFFFF7EEFF10F0100FF8D108BD10B5114A137803F0C00343F0090313700E4C237843F001032370FF20FFF7C2FFFF20FFF7D6
:4017C000C5FF7F20FFF7C8FF0020FFF7CBFF00F0C3F8237843F01003237000F0C1F8FFF7D3FF10BD736400409364004008B5054B1B7823B9FFF7D2FF0122024B1A70FFF70B
:4018000097FF08BD3F83FF1F024A137843F08003137070477B650040014B1870704700BF0B650040014B1870704700BF4B650040014B1870704700BF2B650040014B187064
:40184000704700BF8B650040014B1878704700BF6B650040014B1878704700BF5B65004008B501E0FFF7F6FFFFF7EEFF10F0100FF8D108BD10B5114A137803F0C00343F061
:40188000090313700E4C237843F001032370FF20FFF7C2FFFF20FFF7C5FF7F20FFF7C8FF0020FFF7CBFF00F057F8237843F01003237000F055F8FFF7D3FF10BD7B6500404A
:4018C0009B65004008B5054B1B7823B9FFF7D2FF0122024B1A70FFF797FF08BD4083FF1F054A137843F0010313701032137843F001031370704700BFA2430040044A1378AA
:4019000003F0DF03400100F0200018431070704720510040044A137803F0EF03000100F0100018431070704720510040044A137803F0F703C00000F008001843107070472C
:4019400020510040000000000230800803D000BF01380046FCD17047EFF3108072B6704780F31088704700BF18484FF47F0102680A43026016486FF07F4102680A400260C6
:40198000704714484FF080510160704772B611484FF000610160FFF727FC0F48006800F0C3F858B10C4800684FF080730B4A0C490FB40FB46FF00600004700BF6FF00600F0
:4019C00062B6004762B600DF08B0704720ED00E01CED00E004ED00E07C83FF1F091A0000C5190000EFF30880054908600548006880F3088870470248006880F30888704762
:401A00003882FF1F2C82FF1F411C8900154A11440968154A136899421AD0F0B444464D4656465F46F0B400B5104C9B002344EFF308851D60116089002144096881F30888DF
:401A400002BC8E46F0BCA046A946B246BB46F0BC002806DB00B500F05BF802BC8E46FFF7D3BF7047CC2A00003883FF1F3082FF1FF0B444464D4656465F46F0B400B5EFF300
:401A8000038308B48000174901440968164A0244EFF30883136088471448804704BC4FF08070024382F3038801BC8646F0BCA046A946B246BB46F0BC704780000A49014424
:401AC0000A6882F3088804BC4FF08070024382F3038808BC9E46F0BCA046A946B246BB46F0BC70479C2A00003893FF1FF11A000008B572B6014B1868FFF7DFFFD481FF1F04
:401B000008B5024B1868FFF7B3FF08BDD481FF1F08B562B6FFF7F4FF72B600F041F8014B186808BD7C83FF1F00280BDA20F000400130054B53F82000044B1B68181A18BF5A
:401B40000120704701207047CC2A00003883FF1F054B53F82020054B53F820309A4201D101207047002070473C81FF1F482A000008B5FFF777FB084B53F8203043B100224D
:401B8000054B43F8202040F00040044B186008BD024B186008BD00BFE482FF1F7C83FF1F38B5364B1C680022354B1A60354A52F82430013342F82430334B53F824502046E4
:401BC000FFF7C6FF012801D0A54204D103222F4B43F8242003E002222C4B43F824202C4B53F824102B4A136823EA010313602A4B53F82440214B1C60B5F1FF3F0FD0234BB2
:401C000053F82530032B07D10222204B43F825200022224B43F825202846FFF789FBFFF765FBB0F1FF3F0BD1B4F1FF3F03D00022164B43F8242044F00044194B1C6038BDE2
:401C4000184B53F82020134B1B689A4208D800220E4B43F8242044F00044114B1C6038BD00210A4A42F82010094A52F820201343084A1360FFF77CFF38BD00BFD481FF1F2B
:401C80006C83FF1F3C81FF1FF480FF1FF081FF1F602A00003483FF1FD881FF1F1483FF1F7C83FF1F842A0000014B1868704700BF9C82FF1F0E4B70B51E460E4C0025E41AE8
:401CC000A410A54204D056F8253098470135F8E700F088FF084B094C1E46E41AA4100025A54204D056F8253098470135F8E770BDF02B0000F02B0000F02B0000F82B000091
:401D000010B5431E0A44914204D011F8014B03F8014FF8E710BD03460244934202D003F8011BFAE77047000038B5124B05461C68A36BD3B9182000F07DF843F20E33A0638E
:401D400003804AF6CD33438041F2342383804EF26D63C3804DF6EC630381052343810B23838101220023C0E90423A36B00221D615A6138BD9C82FF1F194B10B51C68A36B5E
:401D8000D3B9182000F056F843F20E33A06303804AF6CD33438041F2342383804EF26D63C3804DF6EC630381052343810B23838101220023C0E90423A16B0A4C0B69486971
:401DC0005C43094A02FB0040A3FB02230132034443F10003C1E9042323F0004010BD00BF9C82FF1F2DF451582D7F954C0EB400B54FF402719CB0ADF814106FF00041049186
:401E000007914FF6FF711DAB02900690084853F8042BADF81610006802A9019300F016F9029B00221A701CB05DF804EB03B070479C82FF1F024B0146186800F04FB800BF61
:401E40009C82FF1F38B50546002944D051F8043C0C1F002BB8BFE41800F0C1FB1E4A1368114613B96360146030E0A3420DD92268A018834201BF18685B6812182260636022
:401E80000C6023E0A24203D813465A68002AF9D118681918A1420BD12168014458188242196013D110685268014419605A600DE002D90C232B6009E021686018824201BF7C
:401EC000106852680918216062605C602846BDE8384000F085BB38BD4883FF1F70B5CD1C25F0030508350C2D38BF0C25002D064601DBA94202D90C23336046E000F06FFBD1
:401F0000234B1C681A462146A1B10B685B1B0ED40B2B03D90B60CC18CD501EE08C420BBF63684B681360636018BF0C4615E00C464968E9E7174C23681BB9304600F016FBD9
:401F400020602946304600F011FB431C18D0C41C24F00304A0420DD12560304600F040FB04F10B00231D20F00700C31A0ED05A42E25070BD211A304600F0F8FA0130EBD14B
:401F80000C233360304600F02BFB002070BD00BF4883FF1F4483FF1F2DE9F0478E6882469E420C46914698463ED88A8912F4906F3AD02568096902236F1A656905EB45051A
:401FC00095FBF3F57B1C43449D4238BF1D4653050FD52946FFF782FF064698B13A462169FFF78EFEA38923F4906343F08003A38113E02A4600F0F5FA064670B921695046E8
:40200000FFF720FF0C23CAF80030A3894FF0FF3043F04003A381BDE8F08726613E44266046466561ED1BA560464528BF464649463246206800F0B8FAA36800209B1BA36019
:4020400023681E442660BDE8F08700002DE9F04F9DB003938B8980461C060D4616460DD50B695BB94021FFF739FF2860286118B90C23C8F80030CDE040236B610023099359
:4020800020238DF82930DFF89CB130238DF82A3037463C4614F8013B1BB9B7EB060910D003E0252BF9D02746F3E74B46324629464046FFF771FF013000F0A780099B4B44DB
:4020C00009933B78002B00F0A08000234FF0FF3204930793059206938DF853301A930126052221784E4800F051FA671C049B38B14B4A3C46801A06FA00F018430490EFE784
:40210000D90644BF20228DF853201A0744BF2B228DF8532022782A2A03D0079A00210A200BE0039A111D12680391002A10DA524243F00200079204900BE027463B7801345F
:40214000303B092B03D800FB02320121F5E701B107923B782E2B1ED17B782A2B0AD1039B02371A1D1B680392002BB8BF4FF0FF33059310E0002319460593781C0A24074665
:402180003A780130303A092A03D804FB01210123F5E703B1059103223978224800F0F6F940B14023CBEB000003FA00F0049B013718430490397806221B487E1C8DF82810EA
:4021C00000F0E4F988B1194B33B9039B073323F007030833039314E003AB00932A46144B04A94046AFF3008007E003AB00932A460F4B04A9404600F093F8B0F1FF3F824623
:4022000003D0099B5344099342E7AB895B0601D4099801E04FF0FF301DB0BDE8F08F00BFAE2B0000B42B0000B82B000000000000991F00002DE9F04791461F460A698B687F
:4022400006469342B8BF1346C9F8003091F843200C46DDF8208012B10133C9F800302368990642BFD9F800300233C9F80030256815F0060510D104F1190A07E00123524656
:4022800039463046C04701301AD00135E368D9F800209B1A9D42F1DB94F843302268003318BF012392060FD5E118302081F843005A1C94F845102244023382F8431003E05B
:4022C0004FF0FF30BDE8F08704F1430239463046C0470130F4D02268D9F80050E36802F00602042A08BF5D1B2269A3680CBF25EAE57500259342C4BF9B1AED184FF0000983
:402300001A344D4509D00123224639463046C0470130D5D009F10109F3E70020BDE8F0872DE9F04317460A7E85B06E2A984606460C460C9B01F1430E00F0AE8011D8632A77
:4023400022D009D8002A00F0BB80582A40F0CA8081F84520834955E0642A1ED0692A1CD0C0E0732A00F0B08009D86F2A2ED0702A40F0B8800A6842F020020A603EE0752A9B
:4023800024D0782A3AD0ADE01A6801F14205111D1960136884F84230A8E021681A6811F0800F02D0111D196008E011F0400F02F10401196002D0B2F9003000E01368002BAD
:4023C0003CDA2D225B4284F8432037E021681A6811F0800F02D0111D196007E011F0400F02F10401196001D0138800E01368227E5C496F2A14BF0A2208221BE078225A4923
:4024000084F845202268186812F0800F00F104051D6003D1550601D5038800E00368D00744BF42F0200222601BB9226822F0200222601022002084F8430001E049490A225A
:402440006568002DA56008DB206820F0040020602BB9002D7DD175460CE0002B79D07546B3FBF2F002FB1033CB5C05F8013D03460028F5D1082A0BD12368DA0708D52369DD
:4024800062689A42DEBF302305F8013C05F1FF35C5EB0E0323612EE008681A6810F0800F496903D0101D1860136808E010F0400F02F104001860136801D0198000E01960C5
:4024C00000232361754616E01A68111D1960156800216268284600F059F808B1401B6060636804E004F1420584F8422001232361002384F84330CDF800803B4603AA214613
:402500003046FFF797FE013002D14FF0FF3026E023692A4639463046C0470130F5D023689B0710D5002504F1190907E001234A4639463046C0470130E7D00135E368039A49
:402540009B1A9D42F2DBE068039B9842B8BF184605E00B7804F1420584F842308AE705B0BDE8F083BF2B0000D02B000038B5064C0023054608462360FEF798F9431C02D17A
:40258000236803B12B6038BDA495FF1F10B5C9B202449042034605D01C7801308C42F8D1184610BD002010BD884210B501EB020301D8421E0BE09842FBD28118D21AD34236
:4025C00004D013F8014D01F8014DF8E710BD994204D011F8014B02F8014FF8E710BD70477047F8B5074615460E4621B91146BDE8F840FFF773BC1AB9FFF724FC2846F8BD6B
:4026000000F015F885420ED929463846FFF766FC044650B131462A46FFF772FB31463846FFF710FC01E03046F8BD2046F8BD51F8040C0028BEBF091851F8043CC01804383B
:4026400070470000000000005265616374696F6E2047616D6520507265737320616E7920627574746F6E20746F20636F6E74696E75650D0A0000000047616D6520726F75F4
:402680006E64203A2025750A00000000436F727265637420427574746F6E20697320507265737365640A00005265616374696F6E2054696D65206973203A2025750A0000C2
:4026C00057726F6E6720427574746F6E20697320507265737365640A00000000546F6F20736C6F77210A0A00506C6561736520707265737320616E7920627574746F6E20FE
:40270000746F207374617274207468652067616D650A0000546F74616C205265616374696F6E2054696D652069733A2025750A00546F74616C2053636F7265206973203ACB
:402740002025750A0000000041766572616765207265616374696F6E2054696D65206973203A2025750A0000207265616374696F6E2054696D65206973203A202575000068
:40278000546F74616C2053636F7265206973203A202575000A0A0000546F74616C207265616374696F6E2074696D65206973203A202575200A000000417665726167652078
:4027C0005265616374696F6E2054696D65206973202575203A000000FF000000F40100FF0000F4010000FF00F401000000006400FFFFFF006400000000006400FFFFFF00E3
:402800006400FF00FF0064003F065B4F666D7D077F678000405100403000F0510040100000000140001000140140000800400140000A004C0140000200500140200000001B
:40284000FF00010102020202030303030303030304040404040404040404040404040404050505050505050505050505050505050505050505050505050505050505050557
:402880000606060606060606060606060606060606060606060606060606060606060606060606060606060606060606060606060606060606060606060606060606060698
:4028C0000707070707070707070707070707070707070707070707070707070707070707070707070707070707070707070707070707070707070707070707070707070718
:4029000007070707070707070707070707070707070707070707070707070707070707070707070707070707070707070707070707070707070707070707070707070707D7
:402940000500000048290000000000000100000003000000040000000500000000000000010000000000000000000000FFFFFFFF01000000020000000200000000000000D2
:40298000FFFFFFFF01000000020000000400000000000000FFFFFFFF00000000030000000000000000000000FFFFFFFF00000000040000000000000000000000FFFFFFFF19
:4029C00000000000000000000000000000000000010000000000000000000000020000000000000000000000030000000000000000000000040000000000000000000000CD
:402A00000100000002000000030000000400000000000000010000000200000003000000040000001027000000000000010000000000000000000000010000000000000049
:402A400000000000000000000100000001000000010000000100000001000000010000000100000008000000400000000200000004000000010000000100000002000000FD
:402A80000400000001000000080000004000000002000000040000000100000059010000E9010000B5010000FD01000009020000C9020000011B0000011B0000011B0000A0
:402AC000011B0000011B0000011B000000000000000000000000000001000000000000000000000000000000616C61726D5F74696D657200616C61726D5F72616E646F6D07
:402B00007761697400000000616C61726D5F3173656374696D656F7574000000616C61726D5F666164657200616C61726D5F676C6F7765720000000065765F627574746F2F
:402B40006E00000065765F7761697472616E646F6D00000065765F77616974317300000074736B5F696E69740000000074736B5F74696D657200000074736B5F47616D6582
:402B80000000000074736B5F666164657200000074736B5F676C6F776572000074736B5F6261636B67726F756E6400004300232D302B2000686C4C006566674546470030EE
:402BC000313233343536373839414243444546003031323334353637383961626364656600000000F8B500BFF8BC08BC9E4670474D00000029090000F8B500BFF8BC08BC1F
:402C00009E46704729000000182C0000C880FF1FD8010000081300000000000001000000FFFF0000A895FF1FE82A0000F42A0000082B00001C2B0000282B000000000000DB
:402C4000FFFFFFFFFFFFFFFFFFFFFFFFFFFFFFFFFFFFFFFFFFFFFFFFFFFFFFFF0100000002000000030000000400000005000000FFFFFFFF0000000003000000060000005C
:402C8000010000000200000000000000010000000100000001000000010000000100000001000000FFFFFFFFFFFFFFFFFFFFFFFFFFFFFFFFFFFFFFFFFFFFFFFFFFFFFFFF27
:402CC000FFFFFFFFFFFFFFFFFFFFFFFFFFFFFFFFFFFFFFFFFFFFFFFFFFFFFFFFFFFFFFFFFFFFFFFFFFFFFFFFFFFFFFFFFFFFFFFFFFFFFFFFFFFFFFFFFFFFFFFFFFFFFFFF14
:402D0000FFFFFFFFFFFFFFFFFFFFFFFFFFFFFFFFFFFFFFFFFFFFFFFFFFFFFFFFFFFFFFFFFFFFFFFFFFFFFFFFFFFFFFFFFFFFFFFFFFFFFFFFFFFFFFFFFFFFFFFFFFFFFFFFD3
:402D4000030000000300000003000000030000000300000003000000382B0000442B0000542B0000602B00006C2B0000782B0000842B0000902B00009C2B0000A495FF1FA3
:402D800000000000F892FF1F000000000000000000000000000000000000000000000000000000000000000000000000AC2B00000000000000000000000000000000000094
:402DC00000000000000000000000000000000000000000000000000000000000000000000000000000000000000000003C82FF1F00000000000000000000000000000000F7
:402E00000000000000000000000000000000000000000000000000000000000000000000000000000000000000000000000000000000000000000000000000000000000092
:402E40000000000000000000000000000000000000000000000000000000000000000000000000000000000000000000000000000000000000000000000000000000000052
:402E80000000000000000000000000000000000000000000000000000000000000000000000000000000000000000000000000000000000000000000000000000000000012
:402EC00000000000000000000000000000000000000000000000000000000000000000000000000000000000000000000000000000000000000000000000000000000000D2
:020000040003F7
:0200000480007A
:40000000075200400364004003650040540201403103014004050140010701405D0801403B090140030B01400217014041180140461901405F1A01404D1B01400240014045
:40004000094101400642014004430140024501400146014003470140044801400E4C01400C4D0140055001400151014000C00140086909C5110161806440820D830D89726D
:40008000880F89388B0D020806010A040F0127012A062E01300432023301340836013B023F044020410545D046024701481649FF4AFF4BFF4DA04F04501852805405580458
:4000C00059045A045B045C105F01604062C06440654066C068C06AC06CC06EC082038701880192089404A604AB01B004B202B301B408B601BF04C020C106C5D0C601C70201
:40010000C816C9FFCAFFCBFFCDA0CF04D018D280D405D804D904DA04DB04DF01E040E2C0E440E540E6C0E8C0EAC0ECC0EEC000100240040405100780090A110815801608AB
:40014000181419601A401C011D381E801F2022042480260429202F2038083F8040044520480849024D014F80500C5140524055045608574059425A085D015E48710277800D
:40018000C07AC20CC4C4CA44CE12D024D214D6DBA801B240B440EA20E8080208062C0C010E26142C160320102401260E2A03320F3410362A3A883E104046410345E046BC3B
:4001C000480E49FF4AFF4BFF4EF04F44500C58045A045C015D015F0166C06A406B0284338509860C871089148A238C018F0390029120943F9803990C9B119C1F9D109E2090
:400200009F0CA008A110A404A51CA702A80CA920AC1CAE23B010B11FB40FB520B62CB920BAA0BE01BF10C002C540C9FFCA07CBFFCC40CD20CEF0CF05D008D602D713D8049C
:40024000D904DA04DB04DC11DD11DF01E040E1A8E240E32000140140040805020701084809080A8A0E2010801358142015011604180419111A021D041E281F80204021017F
:400280002210292630103280330238483A1043104430470149024D014E08520C56105740590169286A4070807201731888208B808F10A108A302AF02C0B7C22FC47FCA0723
:4002C000CC0DCE0ED0C4D220D601A108B508EC10EC01EE04046706180A230D030F44103C1242138014181755192A1A041B441C101D731F0C201C2173226123042408287FD3
:400300002B082C042F8030403140321F333034383580370F380239083A083B803F155401580459045B045C115D105F01850389038A018D018E028F0296029A019D029F017C
:40034000B001B402B703BE01D418D804D904DB04DC10DD10DF0100200201041409080A040E010F541448154017081B111E041F0A22402520268027912C082F8232403404B9
:400380003521369839683C803F804C0C5A025D015E085FA061206302682069906B4070807106720885028D449004912B924193109418954096889740984899109B089F1123
:4003C000A21EA3C0A680A710A920AA10B508B602C063C2F6C4F0CAB0CCF8CE1ED6F1D80CE0020001010903C4051C091C0A011004110314021507173819031D121F44200124
:4004000023032404270328042B0331033204331C34033580376038203F40406341054202440145EC480349FF4AFF4BFF4C624DA04EF04F41500C580459045A045C115D0167
:400440005F016640670269106A306B106D106E106F128303860291019A02A001AF04B101B201B304B402B702BE14C030C102C5D2C710C823C9FFCAFFCBFFCDA0CF04D01887
:40048000D280D405D804D904DA04DB04DF01E040E2C0E440E540E6C0E8C0EAC0ECC0EEC001200380072008040A400D200F08111412801502181819041E1820012205230439
:4004C000250827A1284029042B082E803110324637013802393C3F02401142044528481049114A024F09560157015E085F81768082108C018D40912A92C494189540960A4D
:400500009704984499309D019E01A282A388A410A508A820AB40AC80AD10AF48B040B320B608C02AC24CC41ECA17CC8FCE87D06ED20CD6D0E001E809EC093380CC100520D2
:40054000080464106680A780C080C210D680D88098049920A780AA80B010EA809920A780AC04E8105B40D4019F408F409F40E008A920AB80EC80EE20500456205B425F813C
:400580006204670887808C048E04D407D607D803E008E4081280710281028E80AB03AE20AF04B740C408DC01E202E808000308030C0210031C03000318C0C000C0000000F4
:4005C00080004080800080000000000000FFFF00FF00000000393900010000000020200000000000000000000000000000000000000000000000000000000000000000000B
:4006000000000000000000000000000000000000000000000000000000000000000000000000000000000000000000000000000000000000000000000000000000000000BA
:40064000000000000000000000000000000000000000000000000000000000000000000000000000000000000000000000000000000000000000000000000000000000007A
:40068000000000000000000000000000000000000000000000000000000000000000000000000000000000000000000000000000000000000000000000000000000000003A
:4006C00000000000000000000000000000000000000000000000000000000000000000000000000000000000000000000000000000000000000000000000000000000000FA
:0200000490006A
:0400000000004007B5
:0200000490105A
:04000000BC90ACAF55
:0200000490303A
:02000000345971
:0200000490402A
:4000000000000000000000000000000000000000000000000000000000000000000000000000000000000000000000000000000000000000000000000000000000000000C0
:400040000000000000000000000000000000000000000000000000000000000000000000000000000000000000000000000000000000000000000000000000000000000080
:400080000000000000000000000000000000000000000000000000000000000000000000000000000000000000000000000000000000000000000000000000000000000040
:4000C0000000000000000000000000000000000000000000000000000000000000000000000000000000000000000000000000000000000000000000000000000000000000
:0200000490501A
:0C00000000012E16106900012E2844C2D9
:00000001FF